{
  "_format": "hh-sol-artifact-1",
  "contractName": "META",
  "sourceName": "contracts/NFT.sol",
  "abi": [
    {
      "inputs": [
        {
          "internalType": "address",
          "name": "_nMetaAeeress",
          "type": "address"
        }
      ],
      "stateMutability": "nonpayable",
      "type": "constructor"
    },
    {
      "anonymous": false,
      "inputs": [
        {
          "indexed": true,
          "internalType": "address",
          "name": "owner",
          "type": "address"
        },
        {
          "indexed": true,
          "internalType": "address",
          "name": "approved",
          "type": "address"
        },
        {
          "indexed": true,
          "internalType": "uint256",
          "name": "tokenId",
          "type": "uint256"
        }
      ],
      "name": "Approval",
      "type": "event"
    },
    {
      "anonymous": false,
      "inputs": [
        {
          "indexed": true,
          "internalType": "address",
          "name": "owner",
          "type": "address"
        },
        {
          "indexed": true,
          "internalType": "address",
          "name": "operator",
          "type": "address"
        },
        {
          "indexed": false,
          "internalType": "bool",
          "name": "approved",
          "type": "bool"
        }
      ],
      "name": "ApprovalForAll",
      "type": "event"
    },
    {
      "anonymous": false,
      "inputs": [
        {
          "indexed": true,
          "internalType": "address",
          "name": "previousOwner",
          "type": "address"
        },
        {
          "indexed": true,
          "internalType": "address",
          "name": "newOwner",
          "type": "address"
        }
      ],
      "name": "OwnershipTransferred",
      "type": "event"
    },
    {
      "anonymous": false,
      "inputs": [
        {
          "indexed": true,
          "internalType": "address",
          "name": "from",
          "type": "address"
        },
        {
          "indexed": true,
          "internalType": "address",
          "name": "to",
          "type": "address"
        },
        {
          "indexed": true,
          "internalType": "uint256",
          "name": "tokenId",
          "type": "uint256"
        }
      ],
      "name": "Transfer",
      "type": "event"
    },
    {
      "inputs": [],
      "name": "_INTERFACE_ID_ERC721_VERIFY_FINGERPRINT",
      "outputs": [
        {
          "internalType": "bytes4",
          "name": "",
          "type": "bytes4"
        }
      ],
      "stateMutability": "view",
      "type": "function"
    },
    {
      "inputs": [
        {
          "internalType": "address",
          "name": "to",
          "type": "address"
        },
        {
          "internalType": "uint256",
          "name": "tokenId",
          "type": "uint256"
        }
      ],
      "name": "approve",
      "outputs": [],
      "stateMutability": "nonpayable",
      "type": "function"
    },
    {
      "inputs": [
        {
          "internalType": "address",
          "name": "owner",
          "type": "address"
        }
      ],
      "name": "balanceOf",
      "outputs": [
        {
          "internalType": "uint256",
          "name": "",
          "type": "uint256"
        }
      ],
      "stateMutability": "view",
      "type": "function"
    },
    {
      "inputs": [
        {
          "internalType": "uint256",
          "name": "",
          "type": "uint256"
        }
      ],
      "name": "extraInfoMap",
      "outputs": [
        {
          "internalType": "string",
          "name": "metaDataURI",
          "type": "string"
        },
        {
          "internalType": "bytes32",
          "name": "metaDataHash",
          "type": "bytes32"
        }
      ],
      "stateMutability": "view",
      "type": "function"
    },
    {
      "inputs": [
        {
          "internalType": "uint256",
          "name": "tokenId",
          "type": "uint256"
        }
      ],
      "name": "getApproved",
      "outputs": [
        {
          "internalType": "address",
          "name": "",
          "type": "address"
        }
      ],
      "stateMutability": "view",
      "type": "function"
    },
    {
      "inputs": [
        {
          "internalType": "string",
          "name": "_metaData",
          "type": "string"
        }
      ],
      "name": "getMetaDataHash",
      "outputs": [
        {
          "internalType": "bytes32",
          "name": "",
          "type": "bytes32"
        }
      ],
      "stateMutability": "pure",
      "type": "function"
    },
    {
      "inputs": [],
      "name": "getMintPrice",
      "outputs": [
        {
          "internalType": "uint256",
          "name": "",
          "type": "uint256"
        }
      ],
      "stateMutability": "view",
      "type": "function"
    },
    {
      "inputs": [],
      "name": "getMintTokenAmount",
      "outputs": [
        {
          "internalType": "uint256",
          "name": "",
          "type": "uint256"
        }
      ],
      "stateMutability": "view",
      "type": "function"
    },
    {
      "inputs": [
        {
          "internalType": "address",
          "name": "_addr",
          "type": "address"
        }
      ],
      "name": "getTokenIdsByAddress",
      "outputs": [
        {
          "internalType": "uint256[]",
          "name": "",
          "type": "uint256[]"
        }
      ],
      "stateMutability": "view",
      "type": "function"
    },
    {
      "inputs": [
        {
          "internalType": "address",
          "name": "owner",
          "type": "address"
        },
        {
          "internalType": "address",
          "name": "operator",
          "type": "address"
        }
      ],
      "name": "isApprovedForAll",
      "outputs": [
        {
          "internalType": "bool",
          "name": "",
          "type": "bool"
        }
      ],
      "stateMutability": "view",
      "type": "function"
    },
    {
      "inputs": [
        {
          "internalType": "uint256",
          "name": "_count",
          "type": "uint256"
        }
      ],
      "name": "mint",
      "outputs": [],
      "stateMutability": "payable",
      "type": "function"
    },
    {
      "inputs": [],
      "name": "mintPrice",
      "outputs": [
        {
          "internalType": "uint256",
          "name": "",
          "type": "uint256"
        }
      ],
      "stateMutability": "view",
      "type": "function"
    },
    {
      "inputs": [],
      "name": "mintPriceByToken",
      "outputs": [
        {
          "internalType": "uint256",
          "name": "",
          "type": "uint256"
        }
      ],
      "stateMutability": "view",
      "type": "function"
    },
    {
      "inputs": [],
      "name": "name",
      "outputs": [
        {
          "internalType": "string",
          "name": "",
          "type": "string"
        }
      ],
      "stateMutability": "view",
      "type": "function"
    },
    {
      "inputs": [],
      "name": "owner",
      "outputs": [
        {
          "internalType": "address",
          "name": "",
          "type": "address"
        }
      ],
      "stateMutability": "view",
      "type": "function"
    },
    {
      "inputs": [
        {
          "internalType": "uint256",
          "name": "tokenId",
          "type": "uint256"
        }
      ],
      "name": "ownerOf",
      "outputs": [
        {
          "internalType": "address",
          "name": "",
          "type": "address"
        }
      ],
      "stateMutability": "view",
      "type": "function"
    },
    {
      "inputs": [],
      "name": "renounceOwnership",
      "outputs": [],
      "stateMutability": "nonpayable",
      "type": "function"
    },
    {
      "inputs": [
        {
          "internalType": "address",
          "name": "from",
          "type": "address"
        },
        {
          "internalType": "address",
          "name": "to",
          "type": "address"
        },
        {
          "internalType": "uint256",
          "name": "tokenId",
          "type": "uint256"
        }
      ],
      "name": "safeTransferFrom",
      "outputs": [],
      "stateMutability": "nonpayable",
      "type": "function"
    },
    {
      "inputs": [
        {
          "internalType": "address",
          "name": "from",
          "type": "address"
        },
        {
          "internalType": "address",
          "name": "to",
          "type": "address"
        },
        {
          "internalType": "uint256",
          "name": "tokenId",
          "type": "uint256"
        },
        {
          "internalType": "bytes",
          "name": "_data",
          "type": "bytes"
        }
      ],
      "name": "safeTransferFrom",
      "outputs": [],
      "stateMutability": "nonpayable",
      "type": "function"
    },
    {
      "inputs": [
        {
          "internalType": "address",
          "name": "operator",
          "type": "address"
        },
        {
          "internalType": "bool",
          "name": "approved",
          "type": "bool"
        }
      ],
      "name": "setApprovalForAll",
      "outputs": [],
      "stateMutability": "nonpayable",
      "type": "function"
    },
    {
      "inputs": [
        {
          "internalType": "string",
          "name": "_newbaseTokenURI",
          "type": "string"
        }
      ],
      "name": "setBaseURI",
      "outputs": [],
      "stateMutability": "nonpayable",
      "type": "function"
    },
    {
      "inputs": [
        {
          "internalType": "uint256",
          "name": "_maxCount",
          "type": "uint256"
        }
      ],
      "name": "setMaxMintCount",
      "outputs": [],
      "stateMutability": "nonpayable",
      "type": "function"
    },
    {
      "inputs": [
        {
          "internalType": "uint256",
          "name": "_price",
          "type": "uint256"
        }
      ],
      "name": "setMintPrice",
      "outputs": [],
      "stateMutability": "nonpayable",
      "type": "function"
    },
    {
      "inputs": [
        {
          "internalType": "address",
          "name": "_newNMetaAddress",
          "type": "address"
        }
      ],
      "name": "setNMetaToken",
      "outputs": [],
      "stateMutability": "nonpayable",
      "type": "function"
    },
    {
      "inputs": [
        {
          "internalType": "address",
          "name": "_newWithdrawable",
          "type": "address"
        }
      ],
      "name": "setWithdrawableAddress",
      "outputs": [],
      "stateMutability": "nonpayable",
      "type": "function"
    },
    {
      "inputs": [
        {
          "internalType": "bytes4",
          "name": "interfaceId",
          "type": "bytes4"
        }
      ],
      "name": "supportsInterface",
      "outputs": [
        {
          "internalType": "bool",
          "name": "",
          "type": "bool"
        }
      ],
      "stateMutability": "view",
      "type": "function"
    },
    {
      "inputs": [],
      "name": "symbol",
      "outputs": [
        {
          "internalType": "string",
          "name": "",
          "type": "string"
        }
      ],
      "stateMutability": "view",
      "type": "function"
    },
    {
      "inputs": [
        {
          "internalType": "uint256",
          "name": "index",
          "type": "uint256"
        }
      ],
      "name": "tokenByIndex",
      "outputs": [
        {
          "internalType": "uint256",
          "name": "",
          "type": "uint256"
        }
      ],
      "stateMutability": "view",
      "type": "function"
    },
    {
      "inputs": [
        {
          "internalType": "uint256",
          "name": "tokenId",
          "type": "uint256"
        }
      ],
      "name": "tokenMetaData",
      "outputs": [
        {
          "internalType": "uint256",
          "name": "",
          "type": "uint256"
        }
      ],
      "stateMutability": "view",
      "type": "function"
    },
    {
      "inputs": [
        {
          "internalType": "uint256",
          "name": "_count",
          "type": "uint256"
        }
      ],
      "name": "tokenMint",
      "outputs": [],
      "stateMutability": "nonpayable",
      "type": "function"
    },
    {
      "inputs": [
        {
          "internalType": "address",
          "name": "owner",
          "type": "address"
        },
        {
          "internalType": "uint256",
          "name": "index",
          "type": "uint256"
        }
      ],
      "name": "tokenOfOwnerByIndex",
      "outputs": [
        {
          "internalType": "uint256",
          "name": "",
          "type": "uint256"
        }
      ],
      "stateMutability": "view",
      "type": "function"
    },
    {
      "inputs": [
        {
          "internalType": "uint256",
          "name": "tokenId",
          "type": "uint256"
        }
      ],
      "name": "tokenURI",
      "outputs": [
        {
          "internalType": "string",
          "name": "",
          "type": "string"
        }
      ],
      "stateMutability": "view",
      "type": "function"
    },
    {
      "inputs": [],
      "name": "totalSupply",
      "outputs": [
        {
          "internalType": "uint256",
          "name": "",
          "type": "uint256"
        }
      ],
      "stateMutability": "view",
      "type": "function"
    },
    {
      "inputs": [
        {
          "internalType": "address",
          "name": "from",
          "type": "address"
        },
        {
          "internalType": "address",
          "name": "to",
          "type": "address"
        },
        {
          "internalType": "uint256",
          "name": "tokenId",
          "type": "uint256"
        }
      ],
      "name": "transferFrom",
      "outputs": [],
      "stateMutability": "nonpayable",
      "type": "function"
    },
    {
      "inputs": [
        {
          "internalType": "address",
          "name": "newOwner",
          "type": "address"
        }
      ],
      "name": "transferOwnership",
      "outputs": [],
      "stateMutability": "nonpayable",
      "type": "function"
    },
    {
      "inputs": [
        {
          "internalType": "uint256",
          "name": "_tokenId",
          "type": "uint256"
        },
        {
          "internalType": "bytes32",
          "name": "_fingerprint",
          "type": "bytes32"
        }
      ],
      "name": "verifyFingerprint",
      "outputs": [
        {
          "internalType": "bool",
          "name": "",
          "type": "bool"
        }
      ],
      "stateMutability": "view",
      "type": "function"
    },
    {
      "inputs": [],
      "name": "withdrawStuckBNB",
      "outputs": [
        {
          "internalType": "bool",
          "name": "",
          "type": "bool"
        }
      ],
      "stateMutability": "nonpayable",
      "type": "function"
    },
    {
      "inputs": [],
      "name": "withdrawStuckToken",
      "outputs": [],
      "stateMutability": "nonpayable",
      "type": "function"
    }
  ],
  "bytecode": "0x6080604052601480553480156200001557600080fd5b5060405162003455380380620034558339810160408190526200003891620001fa565b60408051808201825260078152664e4f574d45544160c81b6020808301918252835180850190945260058452644e4d45544160d81b908401528151919291620000849160009162000154565b5080516200009a90600190602084019062000154565b505050620000b7620000b1620000fe60201b60201c565b62000102565b60158054336001600160a01b031991821617909155601380549091166001600160a01b039290921691909117905566b1a2bc2ec500006011556305f5e10060125562000267565b3390565b600b80546001600160a01b038381166001600160a01b0319831681179093556040519116919082907f8be0079c531659141344cd1fd0a4f28419497f9722a3daafe3b4186f6b6457e090600090a35050565b82805462000162906200022a565b90600052602060002090601f016020900481019282620001865760008555620001d1565b82601f10620001a157805160ff1916838001178555620001d1565b82800160010185558215620001d1579182015b82811115620001d1578251825591602001919060010190620001b4565b50620001df929150620001e3565b5090565b5b80821115620001df5760008155600101620001e4565b6000602082840312156200020c578081fd5b81516001600160a01b038116811462000223578182fd5b9392505050565b600181811c908216806200023f57607f821691505b602082108114156200026157634e487b7160e01b600052602260045260246000fd5b50919050565b6131de80620002776000396000f3fe6080604052600436106102855760003560e01c806370a0823111610153578063a22cb465116100cb578063c87b56dd1161007f578063f17f54a511610064578063f17f54a514610738578063f2fde38b14610758578063f4a0a5281461077857600080fd5b8063c87b56dd146106cf578063e985e9c5146106ef57600080fd5b8063af6a3476116100b0578063af6a34761461067a578063b6adefb91461069a578063b88d4fde146106af57600080fd5b8063a22cb46514610645578063a7f93ebd1461066557600080fd5b806389d5feee116101225780638da5cb5b116101075780638da5cb5b146105ff57806395d89b411461061d578063a0712d681461063257600080fd5b806389d5feee146105a05780638cb5b56b146105cd57600080fd5b806370a0823114610540578063715018a61461056057806372b66a591461057557806384dd44521461058b57600080fd5b8063306c96971161020157806353ed8765116101b557806358d4374e1161019a57806358d4374e146104ea5780636352211e1461050a5780636817c76c1461052a57600080fd5b806353ed87651461049c57806355f804b3146104ca57600080fd5b8063484ed334116101e6578063484ed334146104475780634f64f0491461045c5780634f6ccce71461047c57600080fd5b8063306c96971461040757806342842e0e1461042757600080fd5b806316606e4b1161025857806323b872dd1161023d57806323b872dd146103a75780632b43773e146103c75780632f745c59146103e757600080fd5b806316606e4b1461033b57806318160ddd1461038857600080fd5b806301ffc9a71461028a57806306fdde03146102bf578063081812fc146102e1578063095ea7b314610319575b600080fd5b34801561029657600080fd5b506102aa6102a5366004612e0e565b610798565b60405190151581526020015b60405180910390f35b3480156102cb57600080fd5b506102d46107a9565b6040516102b69190613015565b3480156102ed57600080fd5b506103016102fc366004612e8c565b61083b565b6040516001600160a01b0390911681526020016102b6565b34801561032557600080fd5b50610339610334366004612dc9565b6108d5565b005b34801561034757600080fd5b5061036f7f8cb5b56b0b357b005adf5059f554ed4289f3f4f430f156b4eee18609bb91c36881565b6040516001600160e01b031990911681526020016102b6565b34801561039457600080fd5b506008545b6040519081526020016102b6565b3480156103b357600080fd5b506103396103c2366004612cdf565b610a07565b3480156103d357600080fd5b506103396103e2366004612c93565b610a49565b3480156103f357600080fd5b50610399610402366004612dc9565b610ac5565b34801561041357600080fd5b50610339610422366004612e8c565b610b6d565b34801561043357600080fd5b50610339610442366004612cdf565b610e27565b34801561045357600080fd5b506102aa610e42565b34801561046857600080fd5b50610399610477366004612e46565b610efa565b34801561048857600080fd5b50610399610497366004612e8c565b610f72565b3480156104a857600080fd5b506104bc6104b7366004612e8c565b611024565b6040516102b6929190613028565b3480156104d657600080fd5b506103396104e5366004612e46565b6110c8565b3480156104f657600080fd5b50610339610505366004612c93565b611139565b34801561051657600080fd5b50610301610525366004612e8c565b6111b5565b34801561053657600080fd5b5061039960115481565b34801561054c57600080fd5b5061039961055b366004612c93565b611240565b34801561056c57600080fd5b506103396112da565b34801561058157600080fd5b5061039960125481565b34801561059757600080fd5b50610339611340565b3480156105ac57600080fd5b506105c06105bb366004612c93565b6114bc565b6040516102b69190612fd1565b3480156105d957600080fd5b506102aa6105e8366004612ebc565b600091825260166020526040909120600101541490565b34801561060b57600080fd5b50600b546001600160a01b0316610301565b34801561062957600080fd5b506102d4611528565b610339610640366004612e8c565b611537565b34801561065157600080fd5b50610339610660366004612d93565b6116b0565b34801561067157600080fd5b50601154610399565b34801561068657600080fd5b50610399610695366004612e8c565b611775565b3480156106a657600080fd5b50601254610399565b3480156106bb57600080fd5b506103396106ca366004612d1a565b6117a9565b3480156106db57600080fd5b506102d46106ea366004612e8c565b611837565b3480156106fb57600080fd5b506102aa61070a366004612cad565b6001600160a01b03918216600090815260056020908152604080832093909416825291909152205460ff1690565b34801561074457600080fd5b50610339610753366004612e8c565b611842565b34801561076457600080fd5b50610339610773366004612c93565b6118a1565b34801561078457600080fd5b50610339610793366004612e8c565b611980565b60006107a3826119df565b92915050565b6060600080546107b8906130d8565b80601f01602080910402602001604051908101604052809291908181526020018280546107e4906130d8565b80156108315780601f1061080657610100808354040283529160200191610831565b820191906000526020600020905b81548152906001019060200180831161081457829003601f168201915b5050505050905090565b6000818152600260205260408120546001600160a01b03166108b95760405162461bcd60e51b815260206004820152602c60248201527f4552433732313a20617070726f76656420717565727920666f72206e6f6e657860448201526b34b9ba32b73a103a37b5b2b760a11b60648201526084015b60405180910390fd5b506000908152600460205260409020546001600160a01b031690565b60006108e0826111b5565b9050806001600160a01b0316836001600160a01b0316141561096a5760405162461bcd60e51b815260206004820152602160248201527f4552433732313a20617070726f76616c20746f2063757272656e74206f776e6560448201527f720000000000000000000000000000000000000000000000000000000000000060648201526084016108b0565b336001600160a01b03821614806109865750610986813361070a565b6109f85760405162461bcd60e51b815260206004820152603860248201527f4552433732313a20617070726f76652063616c6c6572206973206e6f74206f7760448201527f6e6572206e6f7220617070726f76656420666f7220616c6c000000000000000060648201526084016108b0565b610a028383611a1d565b505050565b610a12838383611a8b565b610a1c8382611b12565b6001600160a01b039091166000908152600e60209081526040822080546001810182559083529120015550565b600b546001600160a01b03163314610aa35760405162461bcd60e51b815260206004820181905260248201527f4f776e61626c653a2063616c6c6572206973206e6f7420746865206f776e657260448201526064016108b0565b601380546001600160a01b0319166001600160a01b0392909216919091179055565b6000610ad083611240565b8210610b445760405162461bcd60e51b815260206004820152602b60248201527f455243373231456e756d657261626c653a206f776e657220696e646578206f7560448201527f74206f6620626f756e647300000000000000000000000000000000000000000060648201526084016108b0565b506001600160a01b03919091166000908152600660209081526040808320938352929052205490565b6012548190610b7c9082611cca565b6013546040517fdd62ed3e0000000000000000000000000000000000000000000000000000000081523360048201523060248201526001600160a01b039091169063dd62ed3e9060440160206040518083038186803b158015610bde57600080fd5b505afa158015610bf2573d6000803e3d6000fd5b505050506040513d601f19601f82011682018060405250810190610c169190612ea4565b1015610c645760405162461bcd60e51b815260206004820152601860248201527f4e6f7420656e6f75676820746f6b656e20616d6f756e742e000000000000000060448201526064016108b0565b33600090815260106020526040812054839190610c819083611cdd565b9050601454811115610cd55760405162461bcd60e51b815260206004820152601860248201527f4f76657220746865206d6178206d696e7420636f756e742e000000000000000060448201526064016108b0565b6013546012546001600160a01b03909116906323b872dd9033903090610cfb9089611cca565b6040516001600160e01b031960e086901b1681526001600160a01b0393841660048201529290911660248301526044820152606401602060405180830381600087803b158015610d4a57600080fd5b505af1158015610d5e573d6000803e3d6000fd5b505050506040513d601f19601f82011682018060405250810190610d829190612df2565b5060005b84811015610e20576000610d99600c5490565b90506000610da682611ce9565b604051602001610db69190612f54565b6040516020818303038152906040529050610dd13383611d7d565b610ddb8282611ecb565b336000908152600e6020908152604082208054600181018255908352912001829055610e0b600c80546001019055565b50508080610e1890613113565b915050610d86565b5050505050565b610a02838383604051806020016040528060008152506117a9565b600b546000906001600160a01b03163314610e9f5760405162461bcd60e51b815260206004820181905260248201527f4f776e61626c653a2063616c6c6572206973206e6f7420746865206f776e657260448201526064016108b0565b6015546040516000916001600160a01b03169047908381818185875af1925050503d8060008114610eec576040519150601f19603f3d011682016040523d82523d6000602084013e610ef1565b606091505b50909250505090565b60008082604051602001610f0e9190612f09565b60408051808303601f1901815282825280516020918201207f19457468657265756d205369676e6564204d6573736167653a0a33320000000082850152603c8085019190915282518085039091018152605c90930190915281519101209392505050565b6000610f7d60085490565b8210610ff15760405162461bcd60e51b815260206004820152602c60248201527f455243373231456e756d657261626c653a20676c6f62616c20696e646578206f60448201527f7574206f6620626f756e6473000000000000000000000000000000000000000060648201526084016108b0565b6008828154811061101257634e487b7160e01b600052603260045260246000fd5b90600052602060002001549050919050565b60166020526000908152604090208054819061103f906130d8565b80601f016020809104026020016040519081016040528092919081815260200182805461106b906130d8565b80156110b85780601f1061108d576101008083540402835291602001916110b8565b820191906000526020600020905b81548152906001019060200180831161109b57829003601f168201915b5050505050908060010154905082565b600b546001600160a01b031633146111225760405162461bcd60e51b815260206004820181905260248201527f4f776e61626c653a2063616c6c6572206973206e6f7420746865206f776e657260448201526064016108b0565b805161113590600d906020840190612b68565b5050565b600b546001600160a01b031633146111935760405162461bcd60e51b815260206004820181905260248201527f4f776e61626c653a2063616c6c6572206973206e6f7420746865206f776e657260448201526064016108b0565b601580546001600160a01b0319166001600160a01b0392909216919091179055565b6000818152600260205260408120546001600160a01b0316806107a35760405162461bcd60e51b815260206004820152602960248201527f4552433732313a206f776e657220717565727920666f72206e6f6e657869737460448201527f656e7420746f6b656e000000000000000000000000000000000000000000000060648201526084016108b0565b60006001600160a01b0382166112be5760405162461bcd60e51b815260206004820152602a60248201527f4552433732313a2062616c616e636520717565727920666f7220746865207a6560448201527f726f20616464726573730000000000000000000000000000000000000000000060648201526084016108b0565b506001600160a01b031660009081526003602052604090205490565b600b546001600160a01b031633146113345760405162461bcd60e51b815260206004820181905260248201527f4f776e61626c653a2063616c6c6572206973206e6f7420746865206f776e657260448201526064016108b0565b61133e6000611f74565b565b600b546001600160a01b0316331461139a5760405162461bcd60e51b815260206004820181905260248201527f4f776e61626c653a2063616c6c6572206973206e6f7420746865206f776e657260448201526064016108b0565b6013546015546040517f70a082310000000000000000000000000000000000000000000000000000000081523060048201526001600160a01b039283169263a9059cbb92169083906370a082319060240160206040518083038186803b15801561140357600080fd5b505afa158015611417573d6000803e3d6000fd5b505050506040513d601f19601f8201168201806040525081019061143b9190612ea4565b6040516001600160e01b031960e085901b1681526001600160a01b0390921660048301526024820152604401602060405180830381600087803b15801561148157600080fd5b505af1158015611495573d6000803e3d6000fd5b505050506040513d601f19601f820116820180604052508101906114b99190612df2565b50565b6001600160a01b0381166000908152600e602090815260409182902080548351818402810184019094528084526060939283018282801561151c57602002820191906000526020600020905b815481526020019060010190808311611508575b50505050509050919050565b6060600180546107b8906130d8565b803460006115458284611fc6565b90506011548110156115995760405162461bcd60e51b815260206004820152601660248201527f4e6f7420656e6f756768206d696e742070726963652e0000000000000000000060448201526064016108b0565b336000908152601060205260408120548591906115b69083611cdd565b905060145481111561160a5760405162461bcd60e51b815260206004820152601860248201527f4f76657220746865206d6178206d696e7420636f756e742e000000000000000060448201526064016108b0565b60005b868110156116a7576000611620600c5490565b9050600061162d82611ce9565b60405160200161163d9190612f54565b60405160208183030381529060405290506116583383611d7d565b6116628282611ecb565b336000908152600e6020908152604082208054600181018255908352912001829055611692600c80546001019055565b5050808061169f90613113565b91505061160d565b50505050505050565b6001600160a01b0382163314156117095760405162461bcd60e51b815260206004820152601960248201527f4552433732313a20617070726f766520746f2063616c6c65720000000000000060448201526064016108b0565b3360008181526005602090815260408083206001600160a01b03871680855290835292819020805460ff191686151590811790915590519081529192917f17307eab39ab6107e8899845ad3d59bd9653f200f220920489ca2b5937696c31910160405180910390a35050565b6000818152600260205260408120546001600160a01b031661179657600080fd5b506000908152600f602052604090205490565b6117b33383611fd2565b6118255760405162461bcd60e51b815260206004820152603160248201527f4552433732313a207472616e736665722063616c6c6572206973206e6f74206f60448201527f776e6572206e6f7220617070726f76656400000000000000000000000000000060648201526084016108b0565b611831848484846120c9565b50505050565b60606107a382612152565b600b546001600160a01b0316331461189c5760405162461bcd60e51b815260206004820181905260248201527f4f776e61626c653a2063616c6c6572206973206e6f7420746865206f776e657260448201526064016108b0565b601455565b600b546001600160a01b031633146118fb5760405162461bcd60e51b815260206004820181905260248201527f4f776e61626c653a2063616c6c6572206973206e6f7420746865206f776e657260448201526064016108b0565b6001600160a01b0381166119775760405162461bcd60e51b815260206004820152602660248201527f4f776e61626c653a206e6577206f776e657220697320746865207a65726f206160448201527f646472657373000000000000000000000000000000000000000000000000000060648201526084016108b0565b6114b981611f74565b600b546001600160a01b031633146119da5760405162461bcd60e51b815260206004820181905260248201527f4f776e61626c653a2063616c6c6572206973206e6f7420746865206f776e657260448201526064016108b0565b601155565b60006001600160e01b031982167f780e9d630000000000000000000000000000000000000000000000000000000014806107a357506107a3826122d0565b600081815260046020526040902080546001600160a01b0319166001600160a01b0384169081179091558190611a52826111b5565b6001600160a01b03167f8c5be1e5ebec7d5bd14f71427d1e84f3dd0314c0f7b2291e5b200ac8c7c3b92560405160405180910390a45050565b611a953382611fd2565b611b075760405162461bcd60e51b815260206004820152603160248201527f4552433732313a207472616e736665722063616c6c6572206973206e6f74206f60448201527f776e6572206e6f7220617070726f76656400000000000000000000000000000060648201526084016108b0565b610a0283838361236b565b6000805b6001600160a01b0384166000908152600e6020526040902054811015611b9c576001600160a01b0384166000908152600e60205260409020805484919083908110611b7157634e487b7160e01b600052603260045260246000fd5b90600052602060002001541415611b8a57809150611b9c565b80611b9481613113565b915050611b16565b50805b6001600160a01b0384166000908152600e6020526040902054611bc490600190613095565b811015611c79576001600160a01b0384166000908152600e60205260409020611bee82600161304a565b81548110611c0c57634e487b7160e01b600052603260045260246000fd5b9060005260206000200154600e6000866001600160a01b03166001600160a01b031681526020019081526020016000208281548110611c5b57634e487b7160e01b600052603260045260246000fd5b60009182526020909120015580611c7181613113565b915050611b9f565b506001600160a01b0383166000908152600e60205260409020805480611caf57634e487b7160e01b600052603160045260246000fd5b60019003818190600052602060002001600090559055505050565b6000611cd68284613076565b9392505050565b6000611cd6828461304a565b60408051600180825281830190925260609160009190602082018180368337019050509050611d19600a8461312e565b611d2490603061304a565b60f81b81600081518110611d4857634e487b7160e01b600052603260045260246000fd5b60200101907effffffffffffffffffffffffffffffffffffffffffffffffffffffffffffff1916908160001a90535092915050565b6001600160a01b038216611dd35760405162461bcd60e51b815260206004820181905260248201527f4552433732313a206d696e7420746f20746865207a65726f206164647265737360448201526064016108b0565b6000818152600260205260409020546001600160a01b031615611e385760405162461bcd60e51b815260206004820152601c60248201527f4552433732313a20746f6b656e20616c7265616479206d696e7465640000000060448201526064016108b0565b611e4460008383612543565b6001600160a01b0382166000908152600360205260408120805460019290611e6d90849061304a565b909155505060008181526002602052604080822080546001600160a01b0319166001600160a01b03861690811790915590518392907fddf252ad1be2c89b69c2b068fc378daa952ba7f163c4a11628f55a4df523b3ef908290a45050565b6000828152600260205260409020546001600160a01b0316611f555760405162461bcd60e51b815260206004820152602e60248201527f45524337323155524953746f726167653a2055524920736574206f66206e6f6e60448201527f6578697374656e7420746f6b656e00000000000000000000000000000000000060648201526084016108b0565b6000828152600a602090815260409091208251610a0292840190612b68565b600b80546001600160a01b038381166001600160a01b0319831681179093556040519116919082907f8be0079c531659141344cd1fd0a4f28419497f9722a3daafe3b4186f6b6457e090600090a35050565b6000611cd68284613062565b6000818152600260205260408120546001600160a01b031661204b5760405162461bcd60e51b815260206004820152602c60248201527f4552433732313a206f70657261746f7220717565727920666f72206e6f6e657860448201526b34b9ba32b73a103a37b5b2b760a11b60648201526084016108b0565b6000612056836111b5565b9050806001600160a01b0316846001600160a01b031614806120915750836001600160a01b03166120868461083b565b6001600160a01b0316145b806120c157506001600160a01b0380821660009081526005602090815260408083209388168352929052205460ff165b949350505050565b6120d484848461236b565b6120e08484848461254e565b6118315760405162461bcd60e51b815260206004820152603260248201527f4552433732313a207472616e7366657220746f206e6f6e20455243373231526560448201527f63656976657220696d706c656d656e746572000000000000000000000000000060648201526084016108b0565b6000818152600260205260409020546060906001600160a01b03166121df5760405162461bcd60e51b815260206004820152603160248201527f45524337323155524953746f726167653a2055524920717565727920666f722060448201527f6e6f6e6578697374656e7420746f6b656e00000000000000000000000000000060648201526084016108b0565b6000828152600a6020526040812080546121f8906130d8565b80601f0160208091040260200160405190810160405280929190818152602001828054612224906130d8565b80156122715780601f1061224657610100808354040283529160200191612271565b820191906000526020600020905b81548152906001019060200180831161225457829003601f168201915b5050505050905060006122826126b1565b9050805160001415612295575092915050565b8151156122c75780826040516020016122af929190612f25565b60405160208183030381529060405292505050919050565b6120c1846126c0565b60006001600160e01b031982167f80ac58cd00000000000000000000000000000000000000000000000000000000148061233357506001600160e01b031982167f5b5e139f00000000000000000000000000000000000000000000000000000000145b806107a357507f01ffc9a7000000000000000000000000000000000000000000000000000000006001600160e01b03198316146107a3565b826001600160a01b031661237e826111b5565b6001600160a01b0316146123fa5760405162461bcd60e51b815260206004820152602960248201527f4552433732313a207472616e73666572206f6620746f6b656e2074686174206960448201527f73206e6f74206f776e000000000000000000000000000000000000000000000060648201526084016108b0565b6001600160a01b0382166124755760405162461bcd60e51b8152602060048201526024808201527f4552433732313a207472616e7366657220746f20746865207a65726f2061646460448201527f726573730000000000000000000000000000000000000000000000000000000060648201526084016108b0565b612480838383612543565b61248b600082611a1d565b6001600160a01b03831660009081526003602052604081208054600192906124b4908490613095565b90915550506001600160a01b03821660009081526003602052604081208054600192906124e290849061304a565b909155505060008181526002602052604080822080546001600160a01b0319166001600160a01b0386811691821790925591518493918716917fddf252ad1be2c89b69c2b068fc378daa952ba7f163c4a11628f55a4df523b3ef91a4505050565b610a028383836127a8565b60006001600160a01b0384163b156126a657604051630a85bd0160e11b81526001600160a01b0385169063150b7a0290612592903390899088908890600401612f95565b602060405180830381600087803b1580156125ac57600080fd5b505af19250505080156125dc575060408051601f3d908101601f191682019092526125d991810190612e2a565b60015b61268c573d80801561260a576040519150601f19603f3d011682016040523d82523d6000602084013e61260f565b606091505b5080516126845760405162461bcd60e51b815260206004820152603260248201527f4552433732313a207472616e7366657220746f206e6f6e20455243373231526560448201527f63656976657220696d706c656d656e746572000000000000000000000000000060648201526084016108b0565b805181602001fd5b6001600160e01b031916630a85bd0160e11b1490506120c1565b506001949350505050565b6060600d80546107b8906130d8565b6000818152600260205260409020546060906001600160a01b031661274d5760405162461bcd60e51b815260206004820152602f60248201527f4552433732314d657461646174613a2055524920717565727920666f72206e6f60448201527f6e6578697374656e7420746f6b656e000000000000000000000000000000000060648201526084016108b0565b60006127576126b1565b905060008151116127775760405180602001604052806000815250611cd6565b8061278184612860565b604051602001612792929190612f25565b6040516020818303038152906040529392505050565b6001600160a01b038316612803576127fe81600880546000838152600960205260408120829055600182018355919091527ff3f7a9fe364faab93b216da50a3214154f22a0a2b415b23a84c8169e8b636ee30155565b612826565b816001600160a01b0316836001600160a01b0316146128265761282683826129ae565b6001600160a01b03821661283d57610a0281612a4b565b826001600160a01b0316826001600160a01b031614610a0257610a028282612b24565b6060816128a057505060408051808201909152600181527f3000000000000000000000000000000000000000000000000000000000000000602082015290565b8160005b81156128ca57806128b481613113565b91506128c39050600a83613062565b91506128a4565b60008167ffffffffffffffff8111156128f357634e487b7160e01b600052604160045260246000fd5b6040519080825280601f01601f19166020018201604052801561291d576020820181803683370190505b5090505b84156120c157612932600183613095565b915061293f600a8661312e565b61294a90603061304a565b60f81b81838151811061296d57634e487b7160e01b600052603260045260246000fd5b60200101907effffffffffffffffffffffffffffffffffffffffffffffffffffffffffffff1916908160001a9053506129a7600a86613062565b9450612921565b600060016129bb84611240565b6129c59190613095565b600083815260076020526040902054909150808214612a18576001600160a01b03841660009081526006602090815260408083208584528252808320548484528184208190558352600790915290208190555b5060009182526007602090815260408084208490556001600160a01b039094168352600681528383209183525290812055565b600854600090612a5d90600190613095565b60008381526009602052604081205460088054939450909284908110612a9357634e487b7160e01b600052603260045260246000fd5b906000526020600020015490508060088381548110612ac257634e487b7160e01b600052603260045260246000fd5b6000918252602080832090910192909255828152600990915260408082208490558582528120556008805480612b0857634e487b7160e01b600052603160045260246000fd5b6001900381819060005260206000200160009055905550505050565b6000612b2f83611240565b6001600160a01b039093166000908152600660209081526040808320868452825280832085905593825260079052919091209190915550565b828054612b74906130d8565b90600052602060002090601f016020900481019282612b965760008555612bdc565b82601f10612baf57805160ff1916838001178555612bdc565b82800160010185558215612bdc579182015b82811115612bdc578251825591602001919060010190612bc1565b50612be8929150612bec565b5090565b5b80821115612be85760008155600101612bed565b600067ffffffffffffffff80841115612c1c57612c1c61316e565b604051601f8501601f19908116603f01168101908282118183101715612c4457612c4461316e565b81604052809350858152868686011115612c5d57600080fd5b858560208301376000602087830101525050509392505050565b80356001600160a01b0381168114612c8e57600080fd5b919050565b600060208284031215612ca4578081fd5b611cd682612c77565b60008060408385031215612cbf578081fd5b612cc883612c77565b9150612cd660208401612c77565b90509250929050565b600080600060608486031215612cf3578081fd5b612cfc84612c77565b9250612d0a60208501612c77565b9150604084013590509250925092565b60008060008060808587031215612d2f578081fd5b612d3885612c77565b9350612d4660208601612c77565b925060408501359150606085013567ffffffffffffffff811115612d68578182fd5b8501601f81018713612d78578182fd5b612d8787823560208401612c01565b91505092959194509250565b60008060408385031215612da5578182fd5b612dae83612c77565b91506020830135612dbe81613184565b809150509250929050565b60008060408385031215612ddb578182fd5b612de483612c77565b946020939093013593505050565b600060208284031215612e03578081fd5b8151611cd681613184565b600060208284031215612e1f578081fd5b8135611cd681613192565b600060208284031215612e3b578081fd5b8151611cd681613192565b600060208284031215612e57578081fd5b813567ffffffffffffffff811115612e6d578182fd5b8201601f81018413612e7d578182fd5b6120c184823560208401612c01565b600060208284031215612e9d578081fd5b5035919050565b600060208284031215612eb5578081fd5b5051919050565b60008060408385031215612ece578182fd5b50508035926020909101359150565b60008151808452612ef58160208601602086016130ac565b601f01601f19169290920160200192915050565b60008251612f1b8184602087016130ac565b9190910192915050565b60008351612f378184602088016130ac565b835190830190612f4b8183602088016130ac565b01949350505050565b60008251612f668184602087016130ac565b7f2e6a736f6e000000000000000000000000000000000000000000000000000000920191825250600501919050565b60006001600160a01b03808716835280861660208401525083604083015260806060830152612fc76080830184612edd565b9695505050505050565b6020808252825182820181905260009190848201906040850190845b8181101561300957835183529284019291840191600101612fed565b50909695505050505050565b602081526000611cd66020830184612edd565b60408152600061303b6040830185612edd565b90508260208301529392505050565b6000821982111561305d5761305d613142565b500190565b60008261307157613071613158565b500490565b600081600019048311821515161561309057613090613142565b500290565b6000828210156130a7576130a7613142565b500390565b60005b838110156130c75781810151838201526020016130af565b838111156118315750506000910152565b600181811c908216806130ec57607f821691505b6020821081141561310d57634e487b7160e01b600052602260045260246000fd5b50919050565b600060001982141561312757613127613142565b5060010190565b60008261313d5761313d613158565b500690565b634e487b7160e01b600052601160045260246000fd5b634e487b7160e01b600052601260045260246000fd5b634e487b7160e01b600052604160045260246000fd5b80151581146114b957600080fd5b6001600160e01b0319811681146114b957600080fdfea2646970667358221220fe7a5dbfb5f3733f82570fa0c92de83ea42fff67d65c25df9aa5c118a57f2cee64736f6c63430008040033",
  "linkReferences": {},
  "deployedLinkReferences": {}
}